:020000040800F2
:10000000B00B0020DD0100082F3E0008DF330008A0
:100010002D3E0008051100088D4800080000000072
:100020000000000000000000000000007F40000809
:10003000DD110008000000007D400008814000083C
:10004000F7010008F7010008F7010008F7010008B0
:10005000F7010008F7010008F7010008F7010008A0
:10006000F7010008F7010008F7010008F701000890
:1000700009110008F701000815110008F701000830
:10008000F7010008F7010008F7010008F701000870
:10009000F7010008F7010008F7010008F701000860
:1000A000F7010008F7010008F7010008F701000850
:1000B000F7010008F7010008F7010008F701000840
:1000C000F7010008F7010008F7010008F701000830
:1000D000F701000875480008F7010008814800088A
:1000E000F7010008F7010008F7010008F701000810
:1000F000F7010008F7010008F7010008F701000800
:10010000F7010008F7010008F7010008F7010008EF
:10011000F7010008F70100082D410008F701000869
:10012000F7010008F701000821110008F701000895
:10013000F70100080000000000000000F7010008BF
:10014000F7010008F7010008F7010008F7010008AF
:10015000F7010008F70100082D110008F701000859
:10016000F7010008F7010008F7010008F70100088F
:10017000F7010008F7010008F7010008000000007F
:1001800000000000F701000800000000000000006F
:10019000F70100080000000000000000F70100085F
:1001A000000000000000000000000000F70100084F
:1001B000F7010008F7010008F7010008F70100083F
:1001C000F7010008DFF810D000F086FD0048004776
:1001D00015640008AFF30080B00B0020064880478C
:1001E00006480047FEE7FEE7FEE7FEE7FEE7FEE71C
:1001F000FEE7FEE7FEE7FEE71D410008C501000837
:100200002DE9F05F0546002092469B46884606464B
:10021000814640241BE0284641464746224600F0DE
:1002200064FC53465A46C01A914110D311461846F1
:10023000224600F04BFC2D1A67EB01084F46224680
:100240000120002100F042FC17EB00094E41201E66
:10025000A4F10104DFDC484631462A464346BDE8A6
:10026000F09F2DE9F0410024061B254671F10006A0
:1002700005DA01240027D0EB070067EB0101161E09
:1002800073F1000605DA0027D2EB0702012567EBC0
:100290000303FFF7B5FF86460E4617469C46AC4261
:1002A00004D00025D0EB050E65EB010624B100203B
:1002B000D2EB000760EB030C704631463A466346CA
:1002C000BDE8F081D2B201E000F8012B491EFBD25B
:1002D00070470022F6E710B513460A460446194651
:1002E000FFF7F0FF204610BD30B50446002003465E
:1002F00000E05B1C934203D2E05CCD5C401BF8D075
:1003000030BD00000FB400B58DB010A909900B905E
:1003100000914FF0FF300A9000200C9005480690A5
:10032000054807906A4609A80F9900F007FC0DB030
:100330005DF814FB590B0008770B00082DE9FF4FFF
:10034000087883B09946FF2805D0491C2D2804D091
:100350000024002008E000200BE00124F9E700EB76
:10036000800003EB4000491C0B78FF2BF7D104B150
:10037000404200230293147819461D462D2C01D0CB
:100380002B2C04D1521C2D2C13D000240294AA46ED
:100390001478FF2C0FD00A25A3FB057801FB0581FB
:1003A0004FF0000C03FB0C11521CE3194AEB010146
:1003B000EEE70124EAE7814453EA010002D019F58F
:1003C000C87F06DA03980021C0E9001107B0BDE834
:1003D000F08F0025AE4E2F46DFF8B882184600F0A9
:1003E0006FFCCDE90001B9F1000002DAC9F10004A7
:1003F00000E004460023A74A1AEB030B42EB045A21
:1004000012E0E00707D02A4633463846414600F05E
:10041000ECF9074688462A4633461046194600F04E
:10042000E4F905460E466410002CEAD1DDE900012E
:10043000B9F1000F5A46534606DA00F048FA3A4638
:10044000434600F044FA05E000F0CFF93A4643464F
:1004500000F0CBF9029A0AB181F00041039AC2E997
:100460000001B3E72DE9FF4F1F468DB0D7E90146E4
:100470004FF0FF382E2045464FF000090B90B96928
:100480006D1C0E988847396A824688470028F6D145
:10049000BAF1FF3F0AD024F4D064002E11DDBAF186
:1004A0002B0F08D0BAF12D0F0BD102E0404611B04E
:1004B0008DE744F48064B9696D1C0E9888478246C4
:1004C000761E6946600501D52D2000E02B208DF8B1
:1004D000000001F1010B0DF1200809E0B9696D1C64
:1004E0000E98884782460F9844F40074761E056083
:1004F000002E02DDBAF1300FF0D00B998A453ED1C3
:1005000044F0800406E00F99681CA9F1010944F445
:1005100000740860B9696D1C761E0E988847824683
:100520003028F0D02BE00B998A4505D1200603D462
:1005300044F08004761E18E0504604F0BFFE08B375
:100540000DF11301761E44F400748B4508D2AAF114
:1005500030000BF8010B200607D5A9F1010003E0DC
:10056000200602D409F101008146A00502D50F99A9
:10057000681C0860B9696D1C0E9888478246002E79
:10058000D1DC53E0002E51DDBAF1650F02D0BAF193
:10059000450F4BD1A00549D5B9696D1C24F44074B1
:1005A000761E0E9888478246002E0CDD2B2804D03C
:1005B000BAF12D0F07D144F48074B9696D1C0E98FF
:1005C00088478246761EE00501D52D2100E02B21CB
:1005D00008F8011BCDF82C8021E00DF12901761ED1
:1005E00044F4007488450CD2AAF1300010F0FF00EA
:1005F00088F8000002D10B99884509D908F1010853
:1006000006E0E00501D5244801E042F20F70814682
:10061000B9696D1C0E98884782460F980560002EB8
:1006200004DD504604F04AFE0028D6D1F9690E9840
:100630008847FF208BF8000088F800000020069013
:1006400007904B466A4608A906A8FFF777FEA00563
:1006500002D46FF001002AE714F0240F0AD0E0075B
:1006600014D1DDE906123868031D3B600068C0E95B
:1006700000120BE0DDE9060100F00CFA0146E0078C
:1006800004D13868021D3A600068016028460EE710
:10069000000014400000F03FF1D8FFFF2DE9FE4FAD
:1006A000804681EA0300C00F0C46009021F0004113
:1006B00023F00045B8EB0200A94105D2404621468F
:1006C00090461C460B46024623F00040104347D09C
:1006D000270DC7F30A00C3F30A510290401A019094
:1006E00040286BDAC3F3130040F4801B0098924655
:1006F00020B10023D2EB030A63EB0B0B01985946A0
:10070000C0F14002504600F0E1F906460D46504661
:100710005946019A00F0F9F910EB080061410024F4
:1007200087EA115284EAE7731A4340D0009A62B311
:10073000019A012A4FEA075215DC001B61EB020106
:100740004FF0004202EA0752CDE90042001C41F599
:10075000801132462B4600F065FA03B0BDE8F08FF9
:1007600040462146F9E7001B61EB0201001C41F500
:10077000801300185B412018A2F5001747EB030116
:1007800040EAD570B6196D4111E06D084FEA3606A2
:1007900045EAC0754FEA0752001B61EB0201001CDD
:1007A00041F5801149084FEA3000001951413246A5
:1007B0002B4603B0BDE8F04F00F025BA00980122A7
:1007C00040000023D0EB020263EBE0730098214667
:1007D0004FEAE074B8EB000061EB0401E9E783F055
:1007E00000435BE781F0004158E72DE9FE4F81EAC5
:1007F000030404F0004421F0004100944FF0000B8A
:1008000023F0004350EA01045ED052EA03045BD0B7
:10081000C3F30A54C1F30A552C44A4F2F3340194EF
:10082000A0FB0254C1F3130141F48011C3F313037D
:1008300043F4801301FB024400FB034E840A970A31
:1008400044EA815447EA8357A4FB076802958D0A5E
:1008500005FB07854FEA932C04FB0C542705029DEA
:100860004FEA065847EA1637B5EB08056EEB070C5A
:10087000870E920E47EA811742EA8312A7FB020114
:10088000B6EB0B0164EB00042B0D43EA0C335E184E
:1008900044EB1C50DA465146E7FB0201C5F3130452
:1008A0004FEA0B3343EA14534FEA0432019C43EA04
:1008B0000603A4F10C040294009CCDE900B400F0FE
:1008C000B1F903B0BDE8F08F00200146F9E72DE94A
:1008D000F04D81EA030404F0004B21F0004514467A
:1008E0004FF0000A23F0004150EA050220D054EAFC
:1008F00001021DD0C5F30A570246C5F31303C1F325
:100900001300C1F30A5640F4801543F48013A7EB9B
:100910000608101BD64608F2FD3873EB050002D31B
:1009200008F1010801E092185B41B8F1000F03DA09
:1009300000200146BDE8F08D00204FF480110646EE
:1009400084460EE0171B73EB050705D3121B63EB00
:10095000050306434CEA010C49084FEA300092189F
:100960005B4150EA0107EDD152EA030012D082EA5E
:10097000040083EA0501084305D0101BAB4106D2F1
:100980000122002306E000224FF0004302E06FF056
:10099000010253101AEB06004CEB085110EB0A0051
:1009A00041EB0B01BDE8F04D00F02DB90EB5C10FC4
:1009B00080EAE0700844CA07002140F233438DE822
:1009C0000E000A460B4600F02DF903B000BD70B5CD
:1009D000C1F30A5201F000450024C1F3130140F2B3
:1009E000FF3341F480119A4201DA002070BD40F2D9
:1009F00033439A42A2F2334203DC524200F075F8CC
:100A000000E090402C43F1D0404270BD00F0004225
:100A100030F000400AD0C10D01F56071C0F316003E
:100A200042EA0151C20840071143704700200146C5
:100A30007047000030B5041E71F1000404DB4FF074
:100A40000044404264EB0101141E73F1000405DB15
:100A50001C464FF00043524263EB04038B4208BF35
:100A6000824230BD30B5041E71F1000404DB4FF04A
:100A70000044404264EB0101141E73F1000405DBE5
:100A80001C464FF00043524263EB0403994208BFF7
:100A9000904230BD01F0004330B421F0004150EAF3
:100AA000010206D00A0DA2F56072C1F31301002AFB
:100AB00002DC30BC00207047440F44EAC104C1008E
:100AC000E01830BC00EBC25000F066B8202A04DB0E
:100AD000203A00FA02F1002070479140C2F1200351
:100AE00020FA03F3194390407047202A04DB203A90
:100AF00021FA02F00021704721FA02F3D040C2F13E
:100B000020029140084319467047202A06DBCB1784
:100B1000203A41FA02F043EAE07306E041FA02F3B8
:100B2000D040C2F1200291400843194670470000AE
:100B3000026811441378016018467047D160044977
:100B400051610449116200211161114600F0DCB8C5
:100B5000310B0008FD0C0008426842B1016811F831
:100B6000013B23B1521EC0E9001218467047012113
:100B7000C160881E704742685AB1C368016843B9B2
:100B800083688B4205D0491E521CC0E90012002028
:100B900070474FF0FF3070470029A8BF7047401CD6
:100BA000490008BF20F00100704710B4B0FA80FC83
:100BB00000FA0CF050EA010404BF10BC704749B1C0
:100BC000CCF1200421FA04F411FA0CF118BF012130
:100BD00021430843A3EB0C01CB1D4FEA00614FEA10
:100BE000102042BF002010BC704700EBC3501044DF
:100BF0000029A4BF10BC7047401C490008BF20F06A
:100C0000010010BC704710B5141E73F1000408DA1F
:100C1000401C41F1000192185B411A4301D120F0C0
:100C2000010010BD2DE9F04D92469B4611B1B1FA7D
:100C300081F202E0B0FA80F220329046FFF746FFE0
:100C400004460F4640EA0A0041EA0B0153465A4661
:100C5000084313D0114653EA010019D0C8F14002ED
:100C60005046FFF742FF05460E465046594642465B
:100C7000FFF72CFF084305D0012004E02046394649
:100C8000BDE8F08D0020054346EAE0762C4337436B
:100C90000A986305E40AA0EB08000022FD0A44EA72
:100CA00047540A3002D500200146E9E70105101932
:100CB0006941DDE9084500196941BDE8F04DA2E749
:100CC0000EB540F2334202920022CDE900221346D3
:100CD000FFF7A8FF03B000BD064C074D06E0E06833
:100CE00040F0010394E8070098471034AC42F6D373
:100CF000FFF76CFA2885000848850008C0B24FF459
:100D0000F05100F0EBB900002DE9F34F8BB04FF03C
:100D1000000801F10C000C464FF0010B46460DF1A6
:100D2000080A01906269012101989047051E2DD0A3
:100D3000252D2CD0216A8847C0B162690121019814
:100D40009047216A88470028F7D1411E62690198BF
:100D5000904700E0761CA1690B988847216A884774
:100D60000028F7D1E1690B988847DBE7A1690B9868
:100D700088470746A84201D1761CD3E7E1690B9862
:100D800088477F1C02D1B8F1000F6FD047E10027E0
:100D900062693D463946019890472A2804D1626924
:100DA0000121019890470125DFF8889262690121AD
:100DB00001989047A0F130010A290AD24F45E5DC9D
:100DC00007EB870100EB4107303FDFD445F010050A
:100DD000ECE7E90601D46FF000476C280AD04C28F4
:100DE00014D0682815D06A280DD074281CD07A2811
:100DF0001AD01DE062690121019890476C2802D049
:100E000045F0040514E045F002050DE045F020052D
:100E10000AE06269012101989047682802D045F0F4
:100E2000080505E045F400656269012101989047D5
:100E3000C4E9015765283DD019DC58287AD00CDC6C
:100E4000452837D004DC252826D0412831D131E08F
:100E500046282FD047282CD12CE05B2877D061285A
:100E600028D063287CD0642823D15AE0D1E06F28B1
:100E700048D008DC66281DD067281BD0692821D0FF
:100E80006E2816D127E0702845D0732868D07528C1
:100E900047D078280DD14DE0A1690B9888470546C9
:100EA00025283FF469AFE1690B9888476D1C3FF432
:100EB0006AAFB4E023466A466FF001000B99FFF772
:100EC000D1FA9FE045F040006060A80723464FF04C
:100ED000000236D43EE0E8077FF447AF2068011DEA
:100EE00021600068290501D506701BE7290701D597
:100EF000068017E7A90703D5F117C0E9006111E7DC
:100F000006600FE745F040006060A80723464FF0F9
:100F1000080216D41EE040F60E0125EA01006060CA
:100F200016E045F040006060A80723464FF00A0233
:100F300007D40FE045F040006060A80708D52346BD
:100F400010226FF001000B99AFF300805AE007E028
:100F5000234610226FF001000B99AFF3008051E09F
:100F60004FF000094F464B46632802D05B2807D05C
:100F700041E02079C00601D40120A06001273AE0B9
:100F800062690121019890475E2805D14FF001095F
:100F90006269494601989047216939B900210A469A
:100FA000534643F82120491C0829FADBB0B32169D4
:100FB00069B9C11700EBD16253110AEB830122F02A
:100FC0001F02821A01200B68904003430B60626984
:100FD0000121019890475D28E8D1B9F1000F09D0AF
:100FE0000020514651F82020D24341F82020401CD7
:100FF0000828F7DB02AB224600976FF001000B993F
:10100000AFF3008000280CDA401C08D1BBF1000FC0
:1010100005D04FF0FF300DB0BDE8F08FFFE7404640
:10102000F9E7E90701D108F1010806444FF0000B88
:1010300078E60000CCCCCC0C2DE9F04D00231A460C
:101040001B1A8A4103DB00200146BDE8F08DC1F385
:101050000A52C1F3130141F480154FF0000BD10780
:1010600002D100186D41521E0027044640F2FF11C4
:10107000384601EB620A3E468046024600204FF4A5
:101080008011FFF732FDC2197141BB1846EB010018
:10109000B4EB030C75EB000C04D3E41A65EB00050C
:1010A00017460E46241908F101006D418046342888
:1010B000E3DDF91946EB0600091BA84103D24FF006
:1010C000FF32134601E0002213461BEB070046EBFC
:1010D0000A51BDE8F04DFFF796BD00007F2801D909
:1010E000002208E0064A02EB5002C007127800D145
:1010F000120902F00F0201209040084070470000E2
:10110000E8840008FEE70000014800F0C5B80000D0
:10111000DC060020014800F0BFB800003C070020BA
:10112000014800F0B9B800007C060020014800F03A
:10113000B3B800001C06002001681823CAB2103A98
:10114000B2FBF3F2054B6FF30901032A9B5CC36505
:1011500000D9091D81650846704700008E77000898
:1011600010B5014600208B698A6A4FF0C07453B1F4
:10117000B3F5005F15D072B1012A0CD0022A0AD053
:10118000032A09D104E01AB1012A06D0022A03D1A8
:10119000C96AC90100D5012010BDC96AA142FAD0AF
:1011A00010BD002AF7D0012AF2D0022AF3D0032A78
:1011B000F3D010BD30B50468256825F4802525607E
:1011C000046863608368402B036803D099600068FB
:1011D000C26030BD9A600068C16030BD704772B6B1
:1011E000FEE72DE9F0410446876D00F0CDFA064692
:1011F00094F835000025022806D08020606584F828
:1012000034500120BDE8F0812068016821F016010A
:1012100001602068416921F080014161206C08B9BA
:10122000A06C20B12068016821F0080101602068ED
:10123000016821F0010101600CE000F0A5FA801BBB
:10124000052807D920206065032084F8350084F83C
:101250003450D7E720680068C007EED194F85C10DE
:101260003F208840B860012084F8350084F834506D
:101270000020C7E790F83510022903D0802141658E
:1012800001207047052180F835100068016821F0C1
:1012900001010160002070472DE9F84304464FF03A
:1012A0000009CDF8009063484FF41651A56D006811
:1012B000B0FBF1F72E6894F85C10082000FA01F1F9
:1012C00031420FD021680A6852070BD50A6822F014
:1012D00004020A6094F85C108840A860606D40F0D9
:1012E0000100606594F85C104FF0010808FA01F005
:1012F000304208D021684969090604D5A860606DAC
:1013000040F00200606594F85C1004208840304290
:1013100008D021680968890704D5A860606D40F08D
:101320000400606594F85C1010208840304218D0AA
:1013300021680968090714D5A86020680168490375
:1013400004D50068000308D5A16C07E00168C90551
:1013500003D4016821F008010160216C09B1204625
:10136000884794F85C1020208840304231D02168B2
:101370000968C9062DD5A86094F8350005282068AD
:10138000016806D0490347D5006800031DD4616C8D
:101390001CE021F0160101602068416921F0800104
:1013A0004161206C08B9A06C20B12068016821F06F
:1013B0000801016094F85C103F208840A86084F820
:1013C000358084F83490216D1FE0E16B09B120462F
:1013D0008847606D00282BD0606DC00714D00520B1
:1013E00084F835002068016821F00101016000984F
:1013F000401C0090B84203D820680068C007F6D1AE
:1014000084F8358084F83490E16C002910D001B064
:101410002046BDE8F04308470168C905D5D40168F6
:1014200021F01001016084F8358084F83490CCE715
:10143000BDE8F883540000202DE9F041044600F097
:10144000A3F906465CB1022084F83500002584F833
:1014500034502068016821F0010101600DE0012095
:10146000BDE8F08100F090F9801B052805D9202007
:101470006065032084F83500F2E720680068C00743
:10148000F0D12268116820480140D4E901031843D3
:10149000D4E903363343184363691843A3691843F7
:1014A000E3691843236A18430843616A042903D196
:1014B000D4E90B1319430843106020684069666A39
:1014C00020F0070130460E43012704280CD1A06A02
:1014D0000643E06A40B12046FFF742FE20B14020BB
:1014E000606584F83570BAE7206846612046FFF7EA
:1014F00023FE94F85C203F2191408160656584F86B
:1015000035700020ACE700003F8010F02DE9F0417D
:101510000446866D90F83400002501280DD0012086
:1015200084F8340094F835700020012F07D084F837
:10153000340002252846BDE8F0810220FBE702279F
:1015400084F8357060652046FFF734FE94F85C102F
:101550003F208840B0602068016841F016010160BA
:10156000206C20B12068016841F00801016020680A
:10157000016841F001010160DCE7000070B504463C
:1015800000F002F90546601C02D0044800780444CB
:1015900000F0FAF8401BA042FAD370BD48000020CA
:1015A0002DE9F84FDFF8ACA10022012403254FF00C
:1015B0000F090AF1040BAAF1040E00BF0B6804FA2C
:1015C00002F63340B3426ED10F7907F00307012FC3
:1015D00001D0022F16D187684FEA420805FA08FCAD
:1015E00027EA0C07D1F80CC00CFA08FC4CEA070CEF
:1015F000C0F808C04768B7430E79C6F30016964096
:101600003E4346600E79F643B6070AD0C6684FEAF5
:10161000420C05FA0CF7BE438F6807FA0CF7374304
:10162000C7600E7906F00306022E10D1D60800EB33
:101630008608D8F8206057074FEAD76C09FA0CF7EC
:10164000BE430F6907FA0CF73743C8F820700668E5
:101650004FEA420C05FA0CF7BE430F7907F0030777
:1016600007FA0CF7374307604E6816F4403F6BD01B
:10167000394E376847F480473760366822F00307F1
:1016800006F480460096354E07EB060CDCF8086839
:1016900097074FEA177809FA08F7BE43304FB84268
:1016A00002D100271FE04FE02E4FB84201D10127A1
:1016B00019E02D4FB84201D1022714E02B4FB84258
:1016C00001D103270FE02A4FB84201D104270AE0D5
:1016D000284FB84201D1052705E0274FB84201D174
:1016E000062700E0072707FA08F73743CCF8087801
:1016F000DAF800605746D1F804C09E435FEACC2C6C
:1017000000D51E433E60DBF800605F46D1F804C0A0
:101710009E435FEA8C2C00D51E433E60DEF80060DD
:101720007746D1F804C09E435FEA8C3C00D51E4347
:101730003E60084F083F3E68D1F804C09E435FEA10
:10174000CC3C00D51E433E60521C102AFFF436AF3D
:10175000BDE8F88F083C01404438024000300140A9
:10176000000002400004024000080240000C024059
:101770000010024000140240001802400AB18161CA
:1017800070470904FBE700000148806870470000CB
:101790004800002070B5040025D094F83D000025D5
:1017A00020B984F83C50204600F052FA242084F8F6
:1017B0003D002068016821F0010101602068016896
:1017C00041F4004101602068016821F4004101609A
:1017D00000F0AAFB4D4A6168914201D84C4900E0F3
:1017E0004C49884201D2012070BD4B492368B0FBAF
:1017F000F1F15E6826F03F060E435E606368934237
:1018000006D94FF4967359434FF47A73B1FBF3F151
:101810002368491C1E6A26F03F063143196261683D
:10182000914210D84900401EB0FBF1F2521CC2F3A5
:101830000B02042A01D2042022E0B0FBF1F0401C8C
:10184000C0F30B001CE0A268F2B301EBC10303EB91
:101850000116431EB3FBF6F35B1C43F480431B05E8
:1018600049D092B301EBC10202EB0111401EB0FB63
:10187000F1F0401CC0F30B0040F4804040F4004005
:101880002168CA694CF6FF739A431043C861D4E9D2
:10189000071001432068026822F0C0021143016072
:1018A000D4E9030101432068826848F2FF339A4378
:1018B00011438160D4E9050108432168CA6822F018
:1018C000FF021043C86001E00EE016E020680168E6
:1018D00041F0010101602564202084F83D0025636A
:1018E00084F83E50002070BD01EB4106431EB3FB5F
:1018F000F6F35B1CB3E70120C2E701EB4101401E98
:10190000B0FBF1F0401CC0F30B00B7E7A08601006C
:1019100080841E0000093D0040420F002DE9FF4F6A
:1019200083B09A46DDE9118793460446DDF840907E
:10193000FFF72AFF054694F83D00202870D11923AF
:10194000012274492046009501F060FE0028F5D17F
:1019500094F83C00012863D0012084F83C00206802
:101960000168C90703D1016841F0010101602068E5
:10197000016821F400610160222084F83D004020CC
:1019800084F83E0000262664C4F82490A4F82A8037
:10199000608D20856048E062CDE9007553465A4667
:1019A0002046049901F034FD002879D1208DD0B172
:1019B000012821D00228206824D041698069009044
:1019C000208D032866D801282BD0544902283B4695
:1019D0004FF00002009557D08846204601F016FED1
:1019E00000285DD13AE02068416981690091016871
:1019F00041F4007101607DE02068016821F480619C
:101A00000160F0E7016821F48061016020680168ED
:101A100041F400610160206841698069009069E0DB
:101A200075E02A463946204601F096FE88BB54E010
:101A30002068016841F40071016020680069616AF2
:101A40000870606A401C6062218D491E2185618D8D
:101A5000491E618521680969017042E020680168BA
:101A600021F48061016020680069616A0870606A21
:101A7000401C6062208D401E2085608D401E608568
:101A80003B46002241460095204601F0BFFD00B9CB
:101A9000CEE705E02A463946204601F05DFE18B142
:101AA000012007B0BDE8F08F20680069616A087006
:101AB000606A401C6062208D401E81B22185608D6D
:101AC000401E608520684269D243520712D4032920
:101AD00003D1016821F48061016020680069616AB6
:101AE0000870606A401C6062208D401E2085608DF9
:101AF000401E6085208D00287FF462AF202084F88E
:101B00003D0084F83E6084F83C600020C9E7022074
:101B1000C7E70000020010000000FFFF0400010002
:101B20002DE9FF4F83B09A46DDE9119793460446AD
:101B3000DDF84080FFF728FE054694F83D00202898
:101B40007FD11923012240492046009501F05EFD16
:101B5000002876D194F83C00012872D0012084F846
:101B60003C0020680168C90703D1016841F0010108
:101B700001602068016821F400610160212084F87F
:101B80003D00402084F83E0000262664C4F82480EE
:101B9000A4F82A90608D20852C48E062CDE900757C
:101BA00053465A462046049901F0B0FC70B930E023
:101BB0002A463946204601F007FE58B1206C042819
:101BC00004D12068016841F400710160012007B070
:101BD000BDE8F08F606A216800780861606A401C87
:101BE0006062218D491E89B22185628D521E6285F7
:101BF00022685369DB435B070BD469B1007810613D
:101C0000606A401C6062208D401E2085608D401EF1
:101C10006085208D0028CBD12A463946204601F028
:101C2000C9FC0028CAD154F83D0B016841F4007189
:101C30000160202004F81E09E67766770020C6E7D9
:101C4000FFE70220C3E70000020010000000FFFFD2
:101C500010B586B0044614216846FEF73AFB1449D5
:101C60002068884221D113480021026842F0020214
:101C70000260006800F0020005904FF44070009090
:101C80001220CDE90101032003900420049069464D
:101C90000948FFF785FC07481030016841F400113E
:101CA0000160006800F40010059006B010BD00004F
:101CB000005400403038024000040240024881686D
:101CC0000278114481607047480000200B4810B52D
:101CD000016841F400710160016841F480610160B4
:101CE000016841F480710160032000F071F8002068
:101CF00000F006F800F024F8002010BD003C02407F
:101D000070B50D4D04464FF47A712878B1FBF0F0B0
:101D10000A490968B1FBF0F000F03CFB48B9102C0F
:101D200007D200222146501E00F032F800206C60DD
:101D300070BD012070BD000048000020540000204C
:101D40000B4882B0016841F480410160006800F4F2
:101D5000804000900648001F016841F080510160FA
:101D6000006800F080500090072002B000F030B80A
:101D700044380240002809DB00F01F020121914095
:101D80004009800000F1E020C0F800117047000019
:101D9000F0B40E4B1B680C46C3F30223C3F10705D6
:101DA000042D00D90425191D072901D2002300E0C4
:101DB000DB1E012606FA05F1491E214099409E408E
:101DC000761E16403143F0BC02F079BD0CED00E008
:101DD000064900F0070208684FF6FF03184040EA82
:101DE0000220034A10430860704700000CED00E039
:101DF0000000FA052DE9F0470E46050065D0DFF832
:101E00001481D8F80000F7B200F00F00B04207D2FA
:101E100088F80070D8F8000000F00F00B04254D1EC
:101E200028683D4C810712D5400703D5206840F44F
:101E3000E05020602878000703D5206840F4604017
:101E400020602068A96820F0F0000843206028780E
:101E5000C0072DD0304968680839012812D00228FF
:101E600013D0032811D00968890700292DDA2168C9
:101E700021F0030101432160FFF786FC814641F216
:101E8000883A0EE009688903EFE709688901ECE701
:101E9000FFF77AFCA0EB0901514502D90320BDE808
:101EA000F0872068696800F00C00B0EB810FEFD17B
:101EB000D8F80010404601F00F01B14207D9077071
:101EC000006800F00F00B04201D00120E7E7287859
:101ED000400705D52068E96820F4E05008432060F9
:101EE0002878000706D52068296920F4604040EA78
:101EF000C100206000F038F82168084AC1F30311DE
:101F0000515CC8400649086006480068FFF7F8FEC3
:101F10000020C4E7003C02400838024096770008E1
:101F2000540000204C00002004480549006809685E
:101F3000044AC1F38221515CC8407047540000201C
:101F400008380240A6770008044805490068096877
:101F5000044AC1F34231515CC8407047540000202C
:101F600008380240A6770008224810B5006810F033
:101F70000C02214815D04110042A11D01D4C241FF9
:101F8000082A0FD00C2A0CD12268236802F03F02E5
:101F90005B0221D52068C0F38810A0FB010120E07E
:101FA000084610BD2268236802F03F025B0205D597
:101FB0002068C0F38810A0FB010104E02168C1F390
:101FC0008811A1FB00010023FEF71AF92168C1F373
:101FD0000141491C49000AE02168C1F38811A1FBB5
:101FE00000010023FEF70CF92168C1F30271B0FB78
:101FF000F1F010BD083802400024F4002DE9F84F3C
:1020000004007DD0DFF878B32078ABF10407C00777
:10201000A7F1040550D0DBF800105846C1F3810148
:1020200001290FD00168C1F38101022902D1396869
:10203000490207D40068C0F38100032809D1386839
:10204000400206D52868800336D560680028D8D0BD
:1020500032E06068B0F5803F10D0B0F5A02F28685E
:1020600010D020F480302860286820F48020286078
:102070006068A0B1FFF788FB06460CE0286840F4D2
:102080008030F4E740F480202860F7E7FFF77CFB1E
:10209000801B642876D828688003F7D50CE0FFF70A
:1020A00073FB064605E000BFFFF76EFB801B64284C
:1020B000F0D828688003F7D42078DFF8C89280072A
:1020C0004FF0000A44D5DBF80010584611F00C0F11
:1020D0000FD00168C1F38101022902D13968490298
:1020E00007D50068C0F3810003280AD13868400290
:1020F00007D42868800715D5E068012800D111E0D1
:102100003AE1E068B0B10120C9F80000FFF73CFBFC
:10211000064604E0FFF738FB801B0228BAD828687F
:102120008007F7D52868216920F0F80040EAC1004F
:1021300028600DE0C9F800A0FFF726FB064604E082
:10214000FFF722FB801B02281CD828688007F7D4E1
:102150002078000727D5DFF828828B48616908F1CD
:102160006C0881B101210160FFF70EFB064604E017
:10217000FFF70AFB801B022804D8D8F8000080076C
:10218000F6D510E089E0C0F800A0FFF7FDFA06469A
:1021900005E000BFFFF7F8FA801B02287DD8D8F8C9
:1021A00000008007F6D42078400769D574484FF0C6
:1021B000000838300068C0000BD47148383001681E
:1021C00041F08051016000684FF0010800F080503C
:1021D00000906E4E3068C00511D4306840F48070B5
:1021E0003060FFF7D1FA009006E000BFFFF7CCFAAD
:1021F0000099401A022850D83068C005F6D5604EC4
:10220000A068683601280FD00528306810D020F06B
:1022100001003060306820F004003060A068B8B180
:10222000FFF7B2FA00900FE0306840F00100F4E7E9
:1022300040F004003060F7E7FFF7A6FA0099411A72
:1022400041F28830814264D830688007F4D50EE0CE
:10225000FFF79AFA009007E0FFF796FA0099411A03
:1022600041F28830814254D830688007F4D4B8F104
:10227000000F05D042483830016821F080510160DC
:10228000A069A8B3DBF80010C1F38101022947D08F
:102290000228C9F860A005D000E03AE0FFF774FA20
:1022A000044639E0FFF770FA064604E0FFF76CFADF
:1022B000801B02282DD828688001F7D4F4E9070193
:1022C0000843E168324A490802EB0141A26841EA49
:1022D00082110843217C40EA0160217D40EA0170BF
:1022E00038600120C9F86000FFF74EFA044606E0A6
:1022F00044E000BFFFF748FA001B022809D828680D
:102300008001F7D53AE000BFFFF73EFA001B022834
:1023100002D90320BDE8F88F28688001F4D42DE0AD
:102320000128F7D03868E26900F48001914223D196
:10233000226A00F03F0191421ED147F6C071626AE5
:102340000140B1EB821F17D1A26A4FF0FF3300F4B6
:10235000403103EB5202B1EB024F0DD194F82C2027
:1023600000F07061B1EB026F06D194F8301000F00C
:10237000E040B0EB017F01D00120CBE70020C9E7AE
:102380000838024000004742800E4742007000407B
:102390000000FFFF10B5401EB0F1807F01D3012087
:1023A00010BD4FF0E02460610F21601702F087FA42
:1023B0000020A06107202061002010BD70477047F9
:1023C00010B590F83C20012A22D0012280F83C2050
:1023D000CA688C6822F4407222434C6822F48062FE
:1023E00022430C6822F4006222430C6922F48052DA
:1023F00022434C6922F400522243C969002322F48B
:1024000080420A4301684A6480F83C30002010BDD5
:10241000022010BD70B590F83C20012A32D0012472
:1024200080F83C40022280F83D2003685A689D688D
:1024300022F070060A6832435A60134B02689A42CF
:1024400014D0B2F1804F11D0104B9A420ED0104BE5
:102450009A420BD00F4B9A4208D00F4B9A4205D0AC
:102460000E4B9A4202D00E4B9A4204D1496825F095
:1024700080031943916080F83D40002180F83C10B2
:10248000084670BD022070BD0000014000040040FD
:1024900000080040000C00400004014000400140E2
:1024A0000018004010B50446022249B104290ED09C
:1024B000082913D094F84500012816D0012010BD3A
:1024C00094F842000128F9D184F842200FE094F8F2
:1024D00043000128F2D184F8432008E094F8440036
:1024E0000128EBD184F8442001E084F8452004223F
:1024F000206801F096FE2068416C41F4004141647F
:1025000011492068884214D0B0F1804F11D00F4992
:1025100088420ED00E4988420BD00E49884208D01E
:102520000D49884205D00D49884202D00C498842A5
:1025300004D1816801F00701062903D0016841F048
:1025400001010160002010BD0000014000040040B6
:1025500000080040000C0040000401400040014021
:102560000018004010B5040003D094F83D0010B1ED
:1025700007E0012010BD002084F83C00204600F058
:102580001FF8022084F83D00211D206801F0D4FDD1
:10259000012084F8460084F83E0084F83F0084F867
:1025A000400084F8410084F8420084F8430084F835
:1025B000440084F8450084F83D00002010BD000070
:1025C00008B500681149884212D11148016841F0EC
:1025D000100101600068002200F010000090114618
:1025E0003620FFF7D5FBBDE808403620FFF7C2BB19
:1025F0000849884209D10648001D016841F00201DE
:102600000160006800F00200009008BD001000406A
:10261000403802400004014090F83D10012901D0EB
:1026200001207047022180F83D100168CA6842F01D
:102630000102CA6000681149884214D0B0F1804F8D
:1026400011D00F4988420ED00E4988420BD00E4956
:10265000884208D00D49884205D00D49884202D0F1
:102660000C49884204D1816801F00701062903D092
:10267000016841F001010160002070470000014045
:102680000004004000080040000C0040000401402D
:10269000004001400018004070B5044690F83C002E
:1026A0000025012817D0012684F83C60022084F818
:1026B0003D002068826822F0770222F47F42826027
:1026C0000868502838D00DDC20284FD005DC90B3A6
:1026D000102811D14AE0022070BD302846D0402891
:1026E0000AD13BE060282FD070280DD0B0F5805F74
:1026F00003D0B0F5005F12D0012584F83D600020C2
:1027000084F83C00284670BDCB68D1E901212068DF
:1027100001F094FD2068816841F0770109E0CB6801
:10272000D1E90121206801F089FD2068816841F428
:1027300080418160E1E719E0CA684968206801F0DA
:1027400051FE5021206806E0CA684968206801F0FF
:102750005AFE6021206801F07BFDCEE7CA68496817
:10276000206801F03FFE40212068F4E7226801461E
:102770001046F0E72DE9F0410D46040003D094F82F
:102780003D0018B108E00120BDE8F081002084F888
:102790003C00204600F040F8022084F83D0020680C
:1027A000816844F2070291438160211D206801F095
:1027B000C3FC226890689169166A2B68AF6903436D
:1027C00040F20330814341EA0721A868EF690843DA
:1027D0004FF6FC418843E96840EA07200143286935
:1027E0002F6A000140EA0730084369686D6926F0E6
:1027F000AA0646EA0515294393602268906154F8B9
:10280000460B0162012004F81F09E0752076E0768E
:102810002077A0750020B7E770B586B00446142174
:102820006846FDF756FD2749254B226800242548B8
:1028300010390225244E9A4223D1026842F0020246
:102840000260006800F002000590086840F0010096
:102850000860086800F001000590086840F0020078
:1028600008600868694600F002000590402000906A
:10287000CDE901541548CDE90345FEF791FE20202E
:1028800013E0134B9A4219D1026842F0040202602D
:10289000006800F004000590086840F0020008603D
:1028A000086800F002000590C0200090CDE90154B6
:1028B00069463046CDE90345FEF772FE06B070BDAD
:1028C0000004004040380240000402400000024082
:1028D0000008004070B590F83E60044690F83F5004
:1028E00090F8423090F84320022021B104290ED004
:1028F000012E1BD114E0012E18D1012B16D184F822
:102900003E0084F8420001220021206820E0012DD1
:102910000CD1012A0AD184F83F0084F8430014E066
:10292000012D03D1012B01D1012A01D0012070BD5D
:1029300084F83E0084F83F0084F8420084F84300A5
:1029400001220021206801F05FFC0122042120689F
:1029500001F05AFC2068016841F00101016000208B
:1029600070BD70472DE9F04104460068C6680569EE
:102970004FF00007A90713D5B10711D5F91E016162
:1029800001202077206880698007204602D0FFF769
:10299000E8FF04E000F0D0F8204600F062F9277765
:1029A000680716D5700714D521686FF00400086118
:1029B000022020772068806910F4407F204602D0F2
:1029C000FFF7CFFF04E000F0B7F8204600F049F928
:1029D0002777280715D5300713D521686FF0080031
:1029E0000861042020772068C0698007204602D053
:1029F000FFF7B7FF04E000F09FF8204600F031F940
:102A00002777E80616D5F00614D521686FF0100078
:102A10000861082020772068C06910F4407F2046B4
:102A200002D0FFF79EFF04E000F086F8204600F099
:102A300018F92777E80708D0F00706D021686FF06B
:102A400001000861204600F071F9280608D530061B
:102A500006D521686FF0800008612046FFF7AEFCC4
:102A6000680608D5700606D521686FF04000086139
:102A7000204600F06BF9A8060AD5B00608D52168F3
:102A80006FF0200008612046BDE8F041FFF797BCD9
:102A9000BDE8F08170B586B0044614216846FDF7A4
:102AA00018FC20492068884239D11F480024016859
:102AB00041F001010160016801F001010591016827
:102AC00041F002010160016801F002010591016815
:102AD00041F0040101600068022500F00400059047
:102AE00080200090CDE901540326CDE903466946D4
:102AF0000E48FEF755FD01200090CDE90154CDE9C7
:102B0000034669460A48FEF74BFDC0200090CDE918
:102B10000154CDE9034669460648FEF741FD06B07B
:102B200070BD000000040140303802400000024047
:102B30000004024000080240704770B5044690F857
:102B40003C0000260D4601280FD0012084F83C00EF
:102B50006AB1042A1DD0082A2FD00C2A3FD00126A2
:102B6000002084F83C00304670BD022070BD206813
:102B700001F076FB2068816941F0080181612068DD
:102B8000816921F004018161206881692A6911430A
:102B900011E0206801F094FB2068816941F4006134
:102BA00081612068816921F4806181612068816987
:102BB0002A6941EA02218161D2E7206801F0B6FB6F
:102BC0002068C16941F00801C1612068C16921F034
:102BD0000401C1612068C1692A69114311E02068BC
:102BE00001F0D8FB2068C16941F40061C16120682F
:102BF000C16921F48061C1612068C1692A6941EA23
:102C00000221C161ACE710B5040003D094F83D0087
:102C100010B107E0012010BD002084F83C002046E0
:102C200000F01EF8022084F83D00211D206801F00C
:102C300083FA012084F8460084F83E0084F83F00BF
:102C400084F8400084F8410084F8420084F843008E
:102C500084F8440084F8450084F83D00002010BD4D
:102C60007047704710B50446022249B104290ED0BE
:102C7000082913D094F84100012816D0012010BD76
:102C800094F83E000128F9D184F83E200FE094F832
:102C90003F000128F2D184F83F2008E094F840007A
:102CA0000128EBD184F8402001E084F84120012282
:102CB000206801F0A9FA16492068164A884201D016
:102CC000904203D1436C43F400434364206888423C
:102CD00013D0B0F1804F10D00F4988420DD00F496A
:102CE00088420AD00E49884207D0904205D00D494B
:102CF000884202D00C49884204D1816801F0070162
:102D0000062903D0016841F001010160002010BDD7
:102D100000000140000401400004004000080040A1
:102D2000000C004000400140001800400549884266
:102D300007D109686FF00100086103490878401C59
:102D400008707047B404002000000020704738B5B8
:102D5000044690F84200202801D0022038BD51B12D
:102D60004AB10120206300206063204601F032FD5B
:102D7000216B012901D0012038BD21680A6849680A
:102D8000009121680C3151E8002F42F0100241E817
:102D90000023002BF5D138BDF8B5254A904221D14A
:102DA00024490020A1F18004225C0A54401C8028A0
:102DB000FAD321480090A0F10803A0F110021D48A9
:102DC0001EA18038FDF79EFA002001462154401CC8
:102DD0008028FBD31749802280391548FFF7B7FFB9
:102DE00019481EE0194CA04220D1124B0020D833C4
:102DF000A3F1580203E01D5C1618401C357188428F
:102E0000F9DB0D49012028395422886009490F480F
:102E1000D831FFF79CFF2068C16841F01001C16004
:102E20000B480068016821F008010160F8BD00004E
:102E3000D40500209802002028000020256C662080
:102E4000256C6620256C6600DC0600204405002009
:102E50007C06002070470000F8B501680446086849
:102E6000CA684B6910F00F0F4FF0000559D003F0FE
:102E7000010602F49077374365D0C10705D0D1052C
:102E800003D5616C41F001016164410705D5D907A3
:102E900003D0616C41F002016164810705D5D90757
:102EA00003D0616C41F004016164010707D502F0B1
:102EB0002001314303D0616C41F008016164616C11
:102EC00000293AD0800604D5900602D5204601F0AC
:102ED0009AFB20684069616CC0F38010090700D438
:102EE00060B3204601F05AFB20684069400621D5B6
:102EF0002068143050E8001F21F0400140E8001223
:102F0000002AF5D1E06BA8B172490165E06BFEF7CC
:102F1000B1F9002811D0E06B016D01B0BDE8F040BF
:102F2000084783060FD593060DD52046BDE8F84027
:102F300001F069BB2046FFF78DFFF8BD2046FFF783
:102F400089FF6564F8BD266B2023012E7ED1C6065D
:102F50007CD5D6067AD508684868009048694FF055
:102F6000020640064DD5E26B106840684FF480774A
:102F70000004000C3AD0A18D814237D9E085D06998
:102F8000B8422DD020680C3050E8001F21F4807129
:102F900040E80012002AF5D12068143050E8001FE4
:102FA00021F0010140E80012002AF5D12068143018
:102FB00050E8001F21F0400140E80012002AF5D13E
:102FC00084F84230256320680C3050E8001F21F05F
:102FD000100140E80012002AF5D1E06BFEF701F97C
:102FE0006663A08DE18D401A81B206E0A18D814219
:102FF000A8D1D069B842A5D166632046FFF7CCFEC0
:10300000F8BDA08DE18D401A81B2E08D0028F7D087
:103010000029F5D020680C3050E8002F22F490727F
:1030200040E80027002FF5D12068143050E8002F29
:1030300022F0010240E80027002FF5D184F8423049
:10304000256320680C3050E8002F00E006E022F0F5
:10305000100240E80023002BF3D1CDE705062BD565
:10306000150629D594F841002128C9D1A068B0F5EA
:10307000805F01D12069B0B1206A411C21622168C2
:1030800000784860E08C401E0004000CE084B7D15A
:103090002068C16821F08001C1602068C16841F0EA
:1030A0004001C160F8BD206A0088C0F30800486094
:1030B000206A801C2062E5E74006F3D55006F1D572
:1030C000CA68204622F04002CA6084F8413000F00D
:1030D0007FF9F8BD5544000870B5040004D094F899
:1030E0004100002510B106E0012070BD84F8405079
:1030F000204600F023F8242084F841002068C168AD
:1031000021F40051C160204601F0DEFA2068016917
:1031100021F4904101612068416921F02A01416157
:103120002068C16841F40051C1606564202084F8C2
:10313000410084F842006563002070BD2DE9F04F26
:1031400087B0044614216846FDF7C3F8734FD4F8DE
:1031500000C07348022203260721724B00254FF05E
:10316000006B4FF4806ABC4550D16D4F1437D7F8CF
:1031700000C04CF0100CC7F800C03F6807F0100703
:103180000597076847F001070760006800F0010035
:103190000590CDE9036170028DE825006946184667
:1031A000FEF7FEF9614E6048D046E6E8020B40208B
:1031B000A6E821015F4646F814595C48B561F561FF
:1031C00035627562FEF738F908B1FEF708F8A663B4
:1031D000B463564E5448603678383060C6E901759D
:1031E000C6E903587561B561F561356230467562AF
:1031F000FEF722F908B1FDF7F2FFE663002211465F
:103200002520B463FEF7C4FD252083E0444FDFF89A
:1032100020811037C4451BD13C6844F400343C6025
:103220003C6804F400340594046844F0010404602C
:10323000006800F001000590CDE903610C208DE8E5
:10324000250069461846FEF7ABF907B0BDE8F08FD8
:10325000384B9C45F9D13B6843F480233B603B6885
:1032600003F480230593036843F0040303600368B9
:1032700003F004030593036843F00203036000684E
:10328000884600F0020005902020CDE9000202AB44
:10329000914683E8600169462748FEF781F902AB51
:1032A000574683E86001CDE900A969462348FEF747
:1032B00077F91E4E2248C036D8463060C6E901B5BF
:1032C000C6E903577561B561F561356230467562CF
:1032D000FEF7B2F808B1FDF782FFE663B463184861
:1032E000184E3030E6E802084020A1C6154846F8DE
:1032F0001459B561F56135627562FEF79DF808B144
:10330000FDF76DFFA663002211462720B463FEF788
:103310003FFD2720FEF72EFD97E70000001001403B
:103320003038024000000240B86402401C06002011
:1033300000440040004800400008024000040240F1
:10334000286002403C0700207047704770B5044673
:1033500090F84100202801D0022070BD01B3FAB1DD
:103360002162A284E28400206064212384F8413039
:10337000A56B144BEB63A56B134B2B64A56B134B25
:10338000EB64A36B186520681346A56B021D2846E5
:10339000FEF7BCF830B110206064202084F84100B2
:1033A000012070BD21686FF0400008602068143073
:1033B00050E8001F41F0800140E80012002AF5D1DA
:1033C000002070BD51450008934500086344000883
:1033D0000149012048607047000000207047FEE767
:1033E00001684A69D24352050FD46FF480624A6182
:1033F000002140F8301F202242738173026942F09D
:103400000402026101730120704700207047000030
:103410002DE9F84F0446006889460B9D01689846DF
:10342000174641F4806101602068016841F48071B1
:10343000016000954FF0011B0022594620460A9B6F
:1034400000F0E4F84FF4007A40B120680068C0054D
:1034500001D5C4F840A00320BDE8F88F216809F029
:10346000FE0008612B46284920460A9A00F016F90A
:10347000F0BB20684169806900902A4620460A997D
:1034800000F0A2F940B1206C04283AD1206801680C
:1034900041F40071016034E0FEB2B8F1010F09D0CF
:1034A0002168380A08612A4620460A9900F08CF9FA
:1034B0000028E8D1206806612A4620460A9900F0D3
:1034C00083F90028DFD12068016841F48071016030
:1034D00000950022594620460A9B00F097F80028E4
:1034E000B3D1216809F0FF0040F00100086100E05D
:1034F00007E02B46044920460A9A00F0CFF800283E
:10350000AAD00120A8E70000020001002DE9F8433D
:10351000044600680D46DDE908970168984616469E
:1035200041F4807101604B4600224FF001112046AA
:10353000009700F06BF848B120680068C00502D51C
:103540004FF4007020640320BDE8F883216805F083
:10355000FE0008613B464A461549204600F09EF8A9
:1035600088B920684169806900903A4649462046FA
:1035700000F02AF948B1206C042804D120680168C1
:1035800041F4007101600120DEE7F5B2B8F1010FEE
:1035900009D02168300A08613A464946204600F0C1
:1035A00013F90028E7D1206805610020CCE700006E
:1035B0000200010070B516460D4604461EE0204686
:1035C000FFF70EFF08B1012070BD681C16D0FEF792
:1035D000DBF8801BA84200D885B920684069C04349
:1035E00040070BD5002044F8300F20216173A073F1
:1035F000216941F0200121612073E4E720684069DE
:10360000C0434007DBD4002070BD00002DE9F04727
:10361000984617460D460446C1F30746DDF820904C
:103620002AE000BFB8F1FF3F26D0FEF7ADF8A0EBCF
:103630000901414502D8B8F1000F1DD12068012EC3
:1036400016D0806925EA00000004000C12D000208A
:10365000B84211D1002044F8300F20216173A073CB
:10366000216941F02001216120730120BDE8F0872C
:103670004069E7E70120EBE72068012E0AD0806966
:1036800025EA00000004000C06D00020B842C9D092
:103690000020EBE74069F3E70120F7E72DE9F04769
:1036A000984616460D4604464FF000094FF0200A92
:1036B000C1F3074723E020684069C043400515D4A3
:1036C0002068016841F40071016021686FF4806036
:1036D0004861C4F8309084F83DA084F83E90216C95
:1036E00041F00401216484F83C9021E0701C06D074
:1036F000FEF74AF8A0EB0800B04203D816B1012F3C
:103700001FD021E02068012F15D0806925EA000034
:103710000004000C18D000BF44F8309F84F80DA0BE
:1037200084F80E90216941F02001216184F80C9009
:103730000120BDE8F087406925EA00000004000C84
:10374000EAD12068406901E02068806925EA00002C
:103750000004000CAFD1ECE72DE9F04100259046C4
:103760000E460446202728E04069C043C0060CD41A
:1037700054F8301B6FF01000486144F81059677717
:10378000A577206A2062257714E0FDF7FDFFA0EB06
:103790000800B04200D886B920684069C04340069E
:1037A0000BD544F8305F6773A573206940F02000A3
:1037B000206125730120BDE8F08120684169C9437B
:1037C0004906D1D40020F6E770B516460D460446EA
:1037D0001EE02046FFF704FE08B1012070BD681C02
:1037E00016D0FDF7D1FF801BA84200D885B920680C
:1037F0004069C04300060BD5002044F8300F20215B
:103800006173A073216941F0200121612073E4E715
:1038100020684069C0430006DBD4002070BD000072
:1038200070B50C462DED0C8B8EB005460CA902A888
:1038300016460BABCDE9000103AA09A907A801F0C0
:10384000E5FE28B14FF0FF300EB0BDEC0C8B70BD23
:10385000BDF80800C0057CD59DED030AF8EEC00A4E
:103860009FED450AB0EE00CA60EE809ADDED040AD5
:10387000F8EEE00A69EE8CCA20EE808ADDED050ADA
:10388000F8EEE00A60EE808ADDED060AF8EEE00A66
:1038900020EE809AB8EE000A28EE00BA2BEE090A54
:1038A0000CEEA80A10EE100AFDF7B0F841EC100B70
:1038B00001F016F89FED31AB51EC100B53EC1A2BC5
:1038C000FCF793FFFDF7E6F82BEE080A28EE8CDAFA
:1038D000F7EE000A28600DEE680A30EE200A10EEBE
:1038E000100AFDF793F82DEE090A41EC1B0B0CEEC4
:1038F000880A10EE100AFDF789F841EC100BB0EEC3
:103900004B1AF0EE6B1A01F007FB53EC1A2B51EC3B
:10391000100BFCF76AFFFDF7BDF829EEA90A20603D
:1039200008EE080A08EEE80A09EE490A10EE100A45
:10393000FDF76CF828EE280A41EC1B0B09EE890A0A
:1039400020EE0C0A10EE100AFDF760F841EC100BA7
:1039500000E00EE0B0EE4B1AF0EE6B1A01F0DCFA6C
:1039600053EC1A2B51EC100BFCF73FFFFDF792F8CC
:103970003060002068E70000000080306666666600
:1039800066A64C4038B5684602F038FF10B14FF0DB
:10399000FF3038BD782003F0CFFC10B16FF001008C
:1039A00038BD782002F056FE10B16FF0020038BD2D
:1039B000642003F075FC10B16FF0030038BD01F016
:1039C0001BFE10B16FF0040038BD1948044602F028
:1039D000FDFC0546E01C02F0F9FC45EAC005A01D0F
:1039E00002F0F4FC45EA801080B201F0C9FF10B18A
:1039F0006FF0050038BD40F2731001F0D5FC10B136
:103A00006FF0060038BD642001F022FF10B16FF0A6
:103A1000070038BD03F06CFD10B16FF0080038BD31
:103A2000012003F037FB0028F9D06FF0090038BD02
:103A300084000020194808B5016841F400110160B4
:103A4000016801F400110091016841F480010160F6
:103A50000068002200F48000009011460C20FEF760
:103A600097F90C20FEF786F9002211460E20FEF78A
:103A70008FF90E20FEF77EF9002211463A20FEF75C
:103A800087F93A20FEF776F9002211464620FEF724
:103A90007FF9BDE808404620FEF76CB93038024097
:103AA00030B587B014216846FCF713FC1F4800248A
:103AB000016841F004010160016801F00401059111
:103AC000016841F080010160016801F08001059109
:103AD000016841F001010160016801F001010591F7
:103AE000016841F0020101600068114D00F0020020
:103AF0000590002220212846FDF740FE4FF400509B
:103B000000904FF40410CDE9010469460948FDF71F
:103B100047FD202000900120CDE901046946284698
:103B20000394FDF73DFD07B030BD00003038024082
:103B300000000240000802400D4810B50B4901602A
:103B40000C49416000214FF480428160C0E90312BA
:103B500041618161C1610162FDF71CFE002803D053
:103B6000BDE81040FDF73BBB10BD00000054004015
:103B7000D0030020801A060010B58CB024216846BE
:103B8000FCF7A7FB00241648099414490A94016025
:103B90000121C0E901144FF6FF72C0E903248461DA
:103BA0000320CDE9000402910A20CDE90340CDE9CC
:103BB0000541079469460A480894FEF7DBFD08B101
:103BC000FDF70DFB099409A905480A94FEF722FCAC
:103BD000002801D0FDF703FB0CB010BD000400402D
:103BE0002404002010B58CB024216846FCF771FB3A
:103BF00000241648099414490A9401600121C0E97F
:103C000001144FF6FF72C0E9032484610320CDE95B
:103C1000000402910A20CDE90340CDE90541CDE938
:103C2000074069460948FEF7A5FD08B1FDF7D7FA38
:103C3000099409A905480A94FEF7ECFB002801D075
:103C4000FDF7CDFA0CB010BD000800406C04002058
:103C50001CB500240E4800940C49019401602921F0
:103C6000C0E9011442F20F718461C160FEF77AFC71
:103C700008B1FDF7B4FA0094694605480194FEF7CF
:103C8000C9FB002801D0FDF7AAFA1CBD00100040B6
:103C9000B404002030B595B000240F941094119412
:103CA000129413941C2168461494FCF712FB2021F3
:103CB00007A8FCF70EFB324D304828605320C5E9B9
:103CC000010440F2E730C5E903048020C5E905405E
:103CD0002846FEF747FC08B1FDF781FA4FF4805003
:103CE0000F900FA92648FEF7D7FC08B1FDF777FA29
:103CF0002348FEF788FF08B1FDF771FA139413A962
:103D00001F481494FEF786FB08B1FDF768FA70208F
:103D1000CDE90004022002900820CDE903040594B7
:103D20000022694616480694FEF707FF08B1FDF722
:103D300056FA2868816921F0080181610420024651
:103D4000049069460E48FEF7F8FE08B1FDF747FA01
:103D50000794089409944FF400500A94CDE90B405D
:103D600007A907480E94FEF72BFB08B1FDF737FAB9
:103D70000348FEF78FFE15B030BD0000000401407F
:103D8000FC0400200C4810B50A4901604FF4E12101
:103D90004160002181600C22C160C0E90412816190
:103DA000C161FFF799F9002803D0BDE81040FDF785
:103DB00016BA10BD00100140440500200C4810B593
:103DC0000A4901604FF4E1314160002181600C2219
:103DD000C160C0E904128161C161FFF77DF900286B
:103DE00003D0BDE81040FDF7FAB910BD0044004013
:103DF0008C0500200C4810B50A4901604FF4612180
:103E00004160002181600C22C160C0E9041281611F
:103E1000C161FFF761F9002803D0BDE81040FDF74C
:103E2000DEB910BD00480040D4050020FEE7FEE7E3
:103E30009FED1B4B00B501469FED150B9FED161B2B
:103E4000B0EE442AF0EE642A03F09DFB9FED160AC3
:103E5000B0EE442AF0EE642AB0EE441AF0EE641A92
:103E6000084603F015FCB0EE443AF0EE643AB0EECA
:103E7000442AF0EE642AB0EE441AF0EE641AB0EE72
:103E8000440AF0EE640A08465DF804EB03F075BBE3
:103E9000000000000000F83F333333333333E33F97
:103EA00000000000000000000000000010B5044603
:103EB0002DED028B9FED188B9FED130B9FED141BC7
:103EC000B0EE482AF0EE682A03F069FBB0EE480A2B
:103ED000F0EE680A204603F0ADFBB0EE483AF0EE93
:103EE000683AB0EE482AF0EE682AB0EE481AF0EED2
:103EF000681AB0EE480AF0EE680ABDEC028B204664
:103F0000BDE8104003F045BB000000000000004089
:103F1000000000000000F03F000000000000000072
:103F200010B504462DED048B01F0EAFE204603F0A7
:103F30003DFB94ED040B94ED061B53EC102B51EC60
:103F4000110BFCF74CFC0CB1C4E9080194ED080B13
:103F50009FED348B51EC100B53EC182BFCF745FC08
:103F600094ED0A1B53EC112BFCF798FB0CB1C4E940
:103F70000A0194ED0E1B94ED080B53EC112B51EC40
:103F8000100BFCF72CFC53EC182BFCF7A0FC0CB12D
:103F9000C4E90C0194ED0C1B94ED140B53EC112BA4
:103FA00051EC100BFCF721FC94ED0A1B94ED120B65
:103FB00041EC180B53EC112B51EC100BFCF715FCDA
:103FC00094ED080B94ED101B41EC190B53EC102BE6
:103FD00051EC110BFCF709FC53EC192BFCF75EFBC1
:103FE00053EC182BFCF75AFB41EC100B84ED160B2D
:103FF000FCF7EDFC4FF4FA712066884202DC49427E
:10400000884201DA216600E0216E204603F0FEFAC4
:1040100094ED080B002C01D084ED0E0BBDEC048B4D
:1040200010BD00009A9999999999A93F10B500215E
:104030000F48FEF717FE00210D48FEF733FA042162
:104040000B48FEF70FFE04210948FEF72BFA08483B
:104050004FF4FA7401684C63006884632146054894
:1040600003F0C0FA2146BDE81040034803F0BABA95
:10407000FC040020C0000020280100207047704789
:10408000FDF71CBE30B593B034216846FCF721F92A
:1040900014210DA8FCF71DF91E480025016841F008
:1040A00080510160006800F0805012901A48016849
:1040B00021F4404141F4804101600068022400F491
:1040C0004040129001200390102000940694049028
:1040D000CDE907504FF4A87009900420CDE90A04F7
:1040E00068460C94FDF78AFF08B172B6FEE70DA989
:1040F0000F2081E831004FF48050CDE910050221F6
:104100000DA8FDF777FE002801D072B6FEE713B0C8
:1041100030BD000040380240007000400248016895
:1041200041F470010160704788ED00E00148FEF73E
:1041300019BC0000B4040020F0B50268274B284DDC
:10414000284E294F294C4FF0804C984209D06045A9
:1041500007D0A84205D0B04203D0B84201D0A04257
:1041600004D122F0700E4A6842EA0E0298421BD037
:10417000604519D0A84217D0B04215D0B84213D02C
:10418000A04211D01A4DA8420ED01A4DA8420BD011
:10419000194DA84208D0194DA84205D0184DA84283
:1041A00002D0184DA84203D122F44075CA682A43B0
:1041B0004D6922F080022A438D68C5620D688562D0
:1041C000984201D0A04201D109690163016841F020
:1041D00004010160012141610260F0BD0000014065
:1041E0000004004000080040000C004000040140B2
:1041F00000400140004401400048014000180040D8
:10420000001C00400020004010B501F01F030121F8
:10421000046A99408C430462016A9A401143016226
:1042200010BD10B501F00F030421046A99408C43BE
:104230000462016A9A401143016210BD10B584689E
:1042400042EA032224F47F440A432243826010BDE1
:10425000826822F070020A4342F0070181607047D1
:10426000F0B5036A026A22F00102026242688469C0
:10427000124E24F073050C682C4323F002058B6862
:104280002B430D4DA84201D0B04205D123F00807C1
:10429000CB683B4323F00403A84201D0B04205D1D0
:1042A0004D6922F4407215438A692A434260846151
:1042B000496841630362F0BD000001400004014011
:1042C000F0B5026A036A23F010030362436884694D
:1042D0000D6824F4E64444EA05248D6822F02002A7
:1042E00042EA05120F4D104EA84201D0B04206D14D
:1042F000CF6822F0800242EA071222F04002A84270
:1043000001D0B04207D14D6923F4406343EA8503ED
:104310008D6943EA85034360846149688163026271
:10432000F0BD00000000014000040140F0B5026A49
:10433000036A23F4807303624368C46922F4007241
:1043400024F073050C68124E2C438D6842EA052256
:104350000E4DA84201D0B04206D1CF6822F40062CF
:1043600042EA072222F48062A84201D0B04207D17B
:104370004D6923F4405343EA05138D6943EA05135D
:104380004360C4614968C1630262F0BD000001403E
:104390000004014030B5046A026A22F480520262CD
:1043A0004268C3690D6823F4E64343EA05238D6838
:1043B00024F4005444EA0534084DA84202D0084DC4
:1043C000A84204D14D6922F4804242EA851242603B
:1043D000C36149680164046230BD0000000001400F
:1043E0000004014010B5036A046A24F00104046269
:1043F000846924F0F00444EA021423F00A020A4318
:104400008461026210BD10B5036A046A24F01004CE
:104410000462846923F0A00324F4704444EA023265
:1044200043EA01118261016210BD000010B5064827
:10443000FEF7F2F83C210548FEF74CFABDE81040C3
:104440003C210348FEF746BAB404002024040020AF
:104450006C04002010B5806B0021C185FEF7FAFCCA
:1044600010BD70B5846B2068406994F84110C0F3AA
:10447000C0100025212904D118B1E584204600F0A0
:10448000B4F82068406994F84210C0F380102229E3
:1044900004D118B1E585204600F080F8606C40F04A
:1044A000100060642046FEF7D5FC70BD10B50146D3
:1044B000806B096809684FF00002C9052ED4C285D7
:1044C00001680C3151E8003F23F4807341E8003467
:1044D000002CF5D10168143151E8003F23F00103AD
:1044E00041E80034002CF5D10168143151E8003F57
:1044F00023F0400341E80034002CF5D1202180F85E
:104500004210016B012909D101680C3151E8003FCB
:1045100023F0100341E80034002CF5D14263016B15
:10452000012902D0FEF710FF10BD818DFEF734FC8B
:1045300010BD10B5806B01214163016B012902D0D0
:10454000FEF703FF10BD818D4908FEF725FC10BD65
:1045500010B50146806B09680968C90516D40021A9
:10456000C1840168143151E8002F22F0800241E833
:104570000023002BF5D101680C3151E8002F42F0E7
:10458000400241E80023002BF5D110BDFEF720FFCB
:1045900010BD10B5806BFEF721FF10BD01680C3116
:1045A00051E8002F22F4907241E80023002BF5D14E
:1045B0000168143151E8002F22F0010241E8002384
:1045C000002BF5D1016B012909D101680C3151E8AB
:1045D000002F22F0100241E80023002BF5D120210A
:1045E00080F8421000210163704701680C3151E8E6
:1045F000002F22F0C00241E80023002BF5D120213A
:1046000080F84110704708B590F84210222901D077
:10461000022008BD82684FF480539A4201D101699B
:1046200021B1816A9A421BD04AB10AE00268816ACC
:104630005268C2F308020A80816A891C08E0026994
:1046400072B10268526802F07F020A70816A491CE6
:104650008162C18D491E0904090CC18503D01BE08C
:1046600002685268F1E70168CA6822F02002CA6055
:104670000168CA6822F48072CA6001684A6922F03F
:1046800001024A61202180F8421000214163026B3F
:10469000012A03D0FEF758FE002008BD016301681F
:1046A0000C3151E8002F22F0100241E80023002BCA
:1046B000F5D101680A68D20602D50A6849680091F6
:1046C000818DFEF769FBE7E770B504460068016974
:1046D000E26821F44051114301612169A068E26957
:1046E00008436169114308432168CA6849F20C63B1
:1046F0009A430243CA6020684169A26921F440716B
:104700001143416131492068884202D030498842D2
:1047100002D1FDF719FC01E0FDF706FCE269002378
:10472000192164253226B2F5004F626828D0A0FB1B
:104730000101930F9200FBF763FD0146B0FBF5F01A
:104740006FF01802504301EB800006EB0010B0FB45
:10475000F5F000F0F002B1FBF5F002EB0012B1FB56
:10476000F5F06FF01803584301EB800006EB0010E2
:10477000B0FBF5F000F00F0021681044886070BDB8
:10478000A0FB010192185B41FBF73AFD0146B0FB2B
:10479000F5F00201B1FBF5F06FF01803584301EB9F
:1047A000800006EBC000B0FBF5F000F0F80002EB73
:1047B0004002B1FBF5F0584301EB800006EBC0006E
:1047C000B0FBF5F000F00700D6E700000010014054
:1047D0000014014038B581620446828500201346EA
:1047E0006064222284F84220E56B1F4AEA63E56B8D
:1047F0001E4A2A64E56B1E4AEA64E26B10650A46AB
:104800002168E06B091DFCF781FE30B11020606467
:10481000202084F84200012038BD206801684068EB
:104820000090206948B120680C3050E8001F41F426
:10483000807140E80012002AF5D12068143050E859
:10484000001F41F0010140E80012002AF5D1206864
:10485000143050E8001F41F0400140E80012002AE7
:10486000F5D1002038BD0000AD44000833450008F4
:10487000634400080148FEF7EFBA00004405002039
:104880000148FEF7E9BA0000D4050020FEE703B4B2
:1048900001984100009850EAC12018BF04204A0D39
:1048A00018BF40F0010040F2FF72B2EB515F08BF49
:1048B00040F00200012808BF052002B07047090738
:1048C000090E002804DB00F1E02080F80014704796
:1048D00000F00F0000F1E02080F8141D7047000088
:1048E00070B5C1482DED020B2DED0E8B82B0119DE0
:1048F00025F000449FEDBEDB9FEDBFEB84423EDB25
:10490000A4F140511098A1F17F6108430FD0BC4839
:10491000844202DC28D1109830B39DED100B02B018
:10492000BDEC0E8B02B0BDE8704000F07BBC9DED8D
:10493000100B53EC1D2B51EC100BFBF756FF9DEDAC
:10494000100B41EC180B53EC1E2B51EC100BFBF72A
:104950004CFF53EC182BFBF7A1FE41EC100B02B0FF
:10496000BDEC0E8B02B070BD012000F0A1FC02B0C6
:10497000BDEC0E8B02B0BDE8704000F069BCA148F0
:104980009FEDA18B844256DA9DED100BB4F1795F57
:104990000ADA51EC100BFFF77AFF042808BF00F089
:1049A00067FC9DED100BDAE753EC102B51EC100B6C
:1049B000FBF71BFF41EC190B95480621B0EE490AA5
:1049C000F0EE690A784400F0B1FB53EC192B51EC7E
:1049D000100BFBF70AFF41EC1A0B8E48B0EE490AA8
:1049E000F0EE690A0421784400F0A0FB53EC192B87
:1049F00051EC100BFBF7F9FE53EC182BFBF74EFEB6
:104A000041EC100B51EC1A0B53EC102BFBF75FFF32
:104A1000CDE900019DED000B53EC102B9DED100B2B
:104A200051EC100BFBF7E1FE9DED101B53EC112B2D
:104A3000FBF734FED2E09DED100B51EC100B01F0B2
:104A4000C3F953EC182BFBF7CDFE9FED730BCDE9AB
:104A5000000153EC102B9DED000B51EC100BFBF7FC
:104A6000C4FE41EC190B6E480621B0EE490AF0EE87
:104A7000690A784400F05AFB53EC192B51EC100BE7
:104A8000FBF7B3FE41EC1B0B6648B0EE490AF0EEB3
:104A9000690A0421784400F049FB53EC192B51ECCE
:104AA000100BFBF7A2FE53EC182BFBF7F7FD41ECC4
:104AB0001C0B51EC190B02F033FE41EC180B5A4859
:104AC0009FED5BABA04222DC53EC1C2B51EC1B0B8B
:104AD000FBF7FDFECDE900019DED000B51EC180B3D
:104AE00053EC102BFBF781FE53EC182BFBF7D6FD94
:104AF00053EC1A2BFBF779FE53EC1D2BFBF76FFEE3
:104B000053EC1E2BFBF76EFE41EC100B5FE08DEDBE
:104B1000008B002000909DED000B51EC180B53EC26
:104B2000102BFBF7BBFD9DED000B41EC1E0B53EC76
:104B3000102B51EC100BFBF758FE53EC192BFBF725
:104B400051FE53EC1E2BFBF7C2FE41EC190B53EC4C
:104B50001C2B51EC1B0BFBF7BAFE41EC1B0B53EC6F
:104B60001A2B51EC190BFBF740FE53EC1D2BFBF7F6
:104B700039FE41EC190B53EC1A2B51EC180BFBF7D7
:104B800034FE53EC1B2BFBF730FE53EC192BFBF7D9
:104B900026FE9DED000B41EC180B53EC1A2B51EC4B
:104BA000100BFBF722FE9FED249B53EC192BFBF718
:104BB00019FE41EC100B51EC180B53EC102BFBF7CA
:104BC0000EFE53EC192BFBF70DFE41EC100B002DE4
:104BD0003FF7C5AE51EC100B81F0004141EC100BDA
:104BE000BDE60000000000000000F03F00000000F3
:104BF000075C143326A6913C182D4454FB21F93F41
:104C00000000F07F0000E03F000000000000F03FE7
:104C1000303A00003E3A0000000000000000E03F93
:104C200082390000903900003333EF3F000000006C
:104C30000000000000000040182D4454FB21E93F13
:104C400070B59B482DED020B2DED068B079D25F0D1
:104C50000044A04218DC9748844202DC0AD106983E
:104C600040B19DED060BBDEC068B02B0BDE8704077
:104C700000F0D8BA002DCCBF9FED8F0B9FED900BAD
:104C8000BDEC068B02B070BD8F48A04215DD8F4889
:104C9000A042D8BF4FF0FF3458DD9DED060B51EC1C
:104CA000100BFFF7F4FD042808BF00F0E1FA9DEDBA
:104CB000060BBDEC068B02B070BD9DED060B51ECF2
:104CC000100B01F081F8CDE9060181489FED828B40
:104CD000A0423CDD8248A0421FDD00249FED82AB54
:104CE0009DED060B53EC1A2B51EC100BFBF7D6FC89
:104CF0009DED060B41EC190B53EC1A2B51EC100BEC
:104D0000FBF773FD53EC182BFBF769FD53EC192BE4
:104D1000FBF7DDFDCDE9060149E09DED060B012421
:104D200053EC182B51EC100BFBF7B8FC9DED060B68
:104D300041EC190B53EC182B51EC100BFBF74FFD0A
:104D400053EC192BFBF7C3FDCDE906012FE06848B2
:104D5000A0421FDD02249FED689B9DED060B53ECE6
:104D6000192B51EC100BFBF740FD53EC182BFBF704
:104D700095FC9DED060B41EC180B53EC192B51ECF7
:104D8000100BFBF72CFD53EC182BFBF7A0FDCDE926
:104D900006010CE09DED060B032453EC102B9FED58
:104DA000580B51EC100BFBF792FDCDE906019DED80
:104DB000060B53EC102B51EC100BFBF716FD41ECDE
:104DC000180B53EC182BFBF710FD41EC190B4E4858
:104DD0000621B0EE490AF0EE690A784400F0A6F91F
:104DE00053EC182B51EC100BFBF7FFFC41EC180BAC
:104DF0004648B0EE490AF0EE690A0521784400F011
:104E000095F953EC192B51EC100BFBF7EEFC41EC30
:104E1000100B51EC180B53EC102B002C0EDAFBF797
:104E20003DFC9DED061B53EC112BFBF7DEFC9DEDCD
:104E3000061B53EC112BFBF7D5FC35E0FBF72EFCE2
:104E40009DED061B53EC112BFBF7CFFC41EC100B37
:104E50002F48784400EBC40090ED001B51EC100B80
:104E600053EC112BFBF7BBFC9DED061B53EC112BF8
:104E7000FBF7B5FC41EC100B2648784400EBC4006E
:104E800090ED001B51EC100B53EC112BFBF7AAFC1F
:104E900041EC100B002DA2BFBDEC068B02B070BD23
:104EA00051EC100B81F0004141EC100B01E70000C8
:104EB000000010440000F07F182D4454FB21F93FFE
:104EC000182D4454FB21F9BF0000DC3F0000203EB8
:104ED0000000F33F00000000000000000000F03F71
:104EE0000000E63F0000000000000000000000405D
:104EF0000080034000000000000000000000F83FB8
:104F0000000000000000F0BFD2360000883600002C
:104F100012360000CA35000070B56F4E2DED040B3F
:104F20002DED048B82B0DDF824C0DDE907235C425F
:104F30002CF000411C4341EAD474069D22F000404D
:104F4000B44205D86C422C4340EAD474B4420BD925
:104F50009DED081B9DED060B02B0BDEC048B04B06B
:104F6000BDE8704000F068B9ACF14054A4F17F6432
:104F70001C430BD0022404EAAC7444EAD274054307
:104F80009FED578B9FED582B07D015E09DED060B3D
:104F900051EC100B00F0E2F942E0002C11BF012CA3
:104FA0009DED060B02B0BDEC048B04BF04B070BDD8
:104FB000022C38D0032C3BD00B439FED4D1B9FEDB3
:104FC0004E0B0AD0B14218D1B04209D121F0804134
:104FD00020F08040099107900FE0002A15DA10E0D8
:104FE000474B7B44002C08BF93ED000B0DD0012CE8
:104FF00010D0022C17D0032C1AD0B0421DD1002A99
:1050000003DAB0EE410AF0EE610A02B0BDEC048BA7
:1050100004B070BD93ED000B51EC100B81F000411A
:1050200041EC100BF1E7B0EE480AF0EE680AECE74D
:10503000B0EE420AF0EE620AE7E7401A00159FED73
:10504000329B3C28C8BF8DED000B17DCBCF1000F74
:10505000BCBF10F13C0F8DED009B0FDB9DED080BED
:1050600053EC102B9DED060B51EC100BFBF72FFCB6
:1050700000F0AAFE00F072F9CDE90001B4B1012CF4
:1050800010D0022C9FED220B53EC102B9DED000B4A
:1050900051EC100B19D0FBF7A2FB53EC182BFBF7CC
:1050A0009EFBBDE7019880F0004001909DED000B54
:1050B00053EC192B51EC100BFBF7BCFC04BF022086
:1050C00000F0F6F89DED000B9FE7FBF788FB53EC33
:1050D000182BFBF787FBA3E70000F07F0000000020
:1050E000182D4454FB210940182D4454FB2109C0BC
:1050F000182D4454FB21F9BF182D4454FB21F93FCE
:10510000FA34000000000000000000000000000071
:10511000075C143326A6A13C2DED020B019820F06C
:10512000004001909DED000B02B0704770B5044641
:105130002DED028B4D1E00EBC500B0EE408AF0EE67
:10514000608A90ED000B35F0060017D053EC182B59
:1051500051EC100BFBF749FB41EC100B6D1E04EBFF
:10516000C50090ED001B51EC100B53EC112BFBF71D
:1051700095FA41EC100B35F00600E7D1022D36D040
:10518000042D1CD0062D1CBFBDEC028B70BD53EC52
:10519000182B51EC100BFBF728FB94ED0A1B53EC7A
:1051A000112BFBF77BFA53EC182BFBF71EFB94ED4E
:1051B000081B53EC112BFBF771FA41EC100B53EC6D
:1051C000182B51EC100BFBF710FB94ED061B53EC66
:1051D000112BFBF763FA53EC182BFBF706FB94ED4E
:1051E000040B53EC102BFBF759FA41EC100B53EC6A
:1051F000182B51EC100BFBF7F8FA94ED021B53EC53
:10520000112BFBF74BFA53EC182BFBF7EEFA94ED4E
:10521000001B53EC112BFBF741FABDEC028B41EC68
:10522000100B70BD10B553EC102B51EC100BFBF7AD
:1052300035FA41EC100B10BD10B553EC112B51ECAD
:10524000100BFBF72BFA41EC100B10BD0000000017
:105250009FED050B10B553EC102B51EC100BFBF729
:1052600036FB41EC100B10BD0000000000000000F8
:105270009FED050B10B553EC102B51EC100BFBF709
:10528000B4FA41EC100B10BD00000000000000104B
:1052900002E008C8121F08C1002AFAD170477047FF
:1052A000002001E001C1121F002AFBD1704700005D
:1052B0000149086070470000B800002030380A2813
:1052C00001D201207047002070470000FEB506465D
:1052D0000D460024684600F083FD00229FED1B1A56
:1052E0006B46012156F8227055F82200381A00D575
:1052F000404200EE100A03EB8200B8EEC00AD0ED87
:10530000000A20EE010AF5EEC00AF1EE10FA0DD007
:10531000C0EE201AB7EE000A0D4F31EEC00AB0EE13
:10532000C00A10EE100AB84207DC09E010EE100ABD
:10533000084F3844084FB84202D301FA02F0044340
:10534000521C032ACEDB2046FEBD00000000803741
:10535000295C0F3E666666C19A99D90010B541EC8A
:10536000100BFFF76DFC51EC100B10BD08B560B1D0
:1053700020208DF8000028208DF8010030208DF8C5
:10538000020038208DF8030004E0A32204216846BF
:10539000FAF798FF6A46042140F69E2002F03CF896
:1053A00001F03CFC08BD00003EB5044602208DF82B
:1053B0000000CA208DF80100E3208DF802000920CA
:1053C0008DF803006A460421682002F025F8A32026
:1053D0008DF80000610609D5C0218DF80110C821A3
:1053E0008DF80210C2218DF8031005E08DF8010040
:1053F0008DF802008DF8030014F4C07F09D0C42199
:105400008DF80410CC218DF80510C6218DF80610FA
:1054100005E08DF804008DF805008DF806008DF884
:1054200008008DF807008DF809006A460A2140F649
:10543000A72001F0F1FFA0074FF0D80503D02020EE
:105440008DF8000001E08DF800506A46012140F619
:10545000B62001F0E1FFA00601D5012000E0002008
:1054600000F08EF814F4C07F1ED0E0050AD5B220FB
:105470008DF800008B208DF80100B6208DF8020019
:105480009B2009E0B0208DF8000080208DF80100FD
:10549000B4208DF8020090208DF803006A460421A4
:1054A00040F6A22001F0B8FFE1074FF40B6022D0D4
:1054B000F8218DF800106A46012101F0ADFFFA21B4
:1054C000072000F04DFB072000F018FB012000F042
:1054D00035FB642000F0F4FB4FF4FA7000F000FCA0
:1054E000C821254800F0D2FA282000F0E7FA0A2067
:1054F00000F0F4FA05E08DF800506A46012101F051
:105500008BFFA00703D5D9208DF8000001E08DF8AE
:1055100000506A46012140F23D7001F07DFF6007B6
:1055200001D5012000E0002000F048F8E00601D598
:10553000012000E00020FFF719FF104D44F00800A3
:10554000688101F06BFB0020A873600601D506207E
:10555000A87314F4C07F02D0A87B801DA87314F038
:10556000140F02D0A87B1030A873A00702D0A87B2C
:10557000001DA87300203EBD09E3CA029C0700205D
:105580000EB54FF4976310B106A107C901E008A258
:1055900007CA8DE807006A460921184601F03CFF5A
:1055A0000EBD0000B8AAB38DB4980D355D000000A3
:1055B000B8AAAAAAB088C3C5C700000008B560B1E0
:1055C000C0208DF80000C2208DF80100C4208DF8A5
:1055D0000200C6208DF8030004E08B2204216846F7
:1055E000FAF770FE6A46042140F6982001F014FF95
:1055F00001F014FB08BD0000C8234FF4806202498B
:1056000040F6F63001F0A8B9007800082DE9FF4F08
:1056100089B01746DDE916520024564E8846814669
:105620002C80A246B07B694601F05AFA4FF0FF3B4E
:1056300018B158460DB0BDE8F08F708910F0140F06
:105640004ED0BDF800109DF8022049BA090441EA85
:1056500002229DF803100A433A60BDF804109DF839
:10566000063049BA090441EA03219DF807301214B3
:1056700019437960BDF808309DF80A405BBA1B04F5
:1056800043EA04239DF80B4009142343BB60BDF893
:105690000C409DF80EC064BA240444EA0C2C9DF81A
:1056A0000F404CEA040C1024C7F80CC01B144FEA3E
:1056B0002C4712FB02F211FB012113FB03F217FB33
:1056C00007221144A1F17061B1F1007F04D901F00A
:1056D000A5FAA5F800A0ACE7298841F480712980DB
:1056E0004206694611D50A19A41D13885BBAA8F8A9
:1056F000003053885BBAA8F80230928852BAA8F8F2
:1057000004202A8842F008022A8010F4C07F11D0B9
:105710000A19A41D13885BBAA9F8003053885BBA34
:10572000A9F80230928852BAA9F804202A8842F0D7
:1057300070022A80800716D00C44E07800F0C00583
:1057400000F03F016078C00706D0C80801F00701EB
:105750003268491C02B190476078000703D5716830
:1057600009B1A8098847FCF70FF80C9908600020D8
:1057700060E700009C0700202DE9FF41044603A8D4
:1057800000F0B0FFBDF80C00410CC30300BF2F4870
:10579000008900F0030254F82250420700D56D4200
:1057A000C0F3C102860654F8222000D55242C0F34D
:1057B0008116C00554F8264000D56442A5FB036756
:1057C000E81700FB037005FB0100850045EA9670B1
:1057D000A2FB0367D51705FB037502FB0152950079
:1057E00045EA9672A4FB0367E51705FB037304FB08
:1057F00001318B0043EA9671030E8DF80030030CE3
:105800008DF80130030A8DF802308DF80300100E78
:105810008DF80400100C8DF80500100A8DF80600B4
:10582000080E8DF80800080C8DF80900080A8DF89C
:105830000A008DF807208DF80B106A460C214FF4F2
:10584000257001F0E9FD04B0BDE8F0819C0700205F
:1058500030B5044613A285B007CA8DE807004FF0A3
:10586000FF35C82C16D8C820B0FBF4F1491E080A31
:105870008DF80C008DF80D1003AA022140F21620BD
:1058800001F0CAFD30B96A460C2140F6C12001F092
:10589000C3FD10B1284605B030BD05488481002005
:1058A000F9E70000FEF2ABC4AAF1DFDFBBAFDFDF38
:1058B0009C070020F8B53049098901F0030250F82F
:1058C00022404A0700D56442C1F3C1028B0650F85A
:1058D000222000D55242C1F3811350F82330C8056D
:1058E00000D55B42254984FB0140850045EA947060
:1058F00082FB0142A40F44EA820483FB0121950F3D
:1059000045EA8105010E8DF80010010C8DF801109B
:10591000010A8DF802108DF803006A4604214FF445
:10592000747001F079FD4FF0FF3688B9200E8DF8C4
:105930000000200C8DF80100200A8DF802008DF87F
:1059400003406A4604214FF4757001F065FD08B10B
:105950003046F8BD280E8DF80000280C8DF80100A7
:10596000280A8DF802008DF803506A4604214FF48E
:10597000767001F051FDF8BD9C07002009E3CA02D2
:105980002DE9FF4104463CA004F0030300680290A7
:105990003AA0006803903AA006683AA0056802A8F9
:1059A000C15C8DF80010C4F3C101425C8DF8012088
:1059B000C4F38112805C8DF8020003A8C35C8DF8EB
:1059C0000430415C8DF80510805C8DF806006A4655
:1059D000032140F2264001F01FFD4FF0FF37E0BBEE
:1059E00001AA032140F22A4001F016FDA8BBCDE92F
:1059F000006560070BD59DF8000040F001008DF8B0
:105A000000009DF8040040F001008DF80400A0069D
:105A10000BD59DF8010040F001008DF801009DF8C4
:105A2000050040F001008DF80500E0050BD59DF85C
:105A3000020040F001008DF802009DF8060040F0E1
:105A400001008DF806006A4603214FF4886001F0DA
:105A5000E3FC10B901AA032100E004E040F2314068
:105A600001F0DAFC18B1384604B0BDE8F081064810
:105A700004810020F8E700004CCD6C000CC92C001C
:105A800036567600264666009C0700204FF47A7250
:105A900090FBF2F008B54843010E8DF80010010CA0
:105AA0008DF80110010A8DF802108DF803006A4686
:105AB00004214FF4AE7001F0AFFC08BD0521B0FB2E
:105AC000F1F008B5010A8DF800108DF801006A4662
:105AD00002214FF4AD7001F09FFC08BD0521B0FB21
